:020000040800F2
:10000000F008002001010008591D00080D1C00081F
:10001000451D0008C50700088925000800000000EC
:100020000000000000000000000000004320000865
:100030006509000800000000412000084520000874
:100040001B0100081B0100081B0100081B01000820
:100050001B0100081B0100081B0100081B01000810
:100060001B0100081B0100081B0100081B01000800
:100070001B0100081B0100081B0100081B010008F0
:100080001B0100081B0100081B0100081B010008E0
:100090001B0100081B0100081B0100081B010008D0
:1000A0001B0100081B0100081B0100081B010008C0
:1000B0001B0100081B0100081B0100081B010008B0
:1000C0001B0100081B0100081B0100081B010008A0
:1000D0001B010008012400080D2400081B01000872
:1000E0001B0100081B0100081B010008DFF80CD0F1
:1000F00000F0D8FA004800473D300008F008002022
:100100000648804706480047FEE7FEE7FEE7FEE7B1
:10011000FEE7FEE7FEE7FEE7FEE7FEE799200008C0
:10012000ED000008202A04DB203A21FA02F0002129
:10013000704721FA02F3D040C2F1200291400843F7
:1001400019467047D2B201E000F8012B491EFBD2DC
:1001500070470022F6E710B513460A4604461946D2
:10016000FFF7F0FF204610BD30B505462A460B4686
:1001700012F8010B13F8014B08B1A042F8D01CB1E2
:10018000002802D06D1CF1E7284630BD30B480EA6B
:10019000010202F0004530F0004221F0004013D08F
:1001A00090B1C30DD40DC2F31601C0F31600E41ACA
:1001B00041F4000140F400027D34914201D3641CFB
:1001C00000E04900002C02DA30BC002070474FF4F8
:1001D00000000023914201D3891A034340084FEAEB
:1001E0004101F7D151B1914202D14FF0004105E0F8
:1001F00002D24FF0010101E06FF0010103EBC450A6
:10020000284430BC00F05FB896230022114600F06D
:1002100063B800F0004230F000400AD0C10D01F593
:100220006071C0F3160042EA0151C2084007114351
:10023000704700200146704730B50B46014600204C
:100240002022012409E021FA02F59D4205D303FA98
:1002500002F5491B04FA02F52844151EA2F1010219
:10026000F1DC30BD2DE9F05F0546002092469B464B
:1002700088460646814640241BE0284641464746BC
:100280002246FFF74FFF53465A46C01A914110D3FA
:1002900011461846224600F017FA2D1A67EB01089E
:1002A0004F4622460120002100F00EFA17EB00090C
:1002B0004E41201EA4F10104DFDC484631462A46A7
:1002C0004346BDE8F09F0029A8BF7047401C490085
:1002D00008BF20F00100704710B4B0FA80FC00FAAB
:1002E0000CF050EA010404BF10BC704749B1CCF1D6
:1002F000200421FA04F411FA0CF118BF0121214362
:100300000843A3EB0C01CB1D4FEA00614FEA10201C
:1003100042BF002010BC704700EBC35010440029BE
:10032000A4BF10BC7047401C490008BF20F001006A
:1003300010BC70472DE9FE4F804681EA0300C00FD4
:100340000C46009021F0004123F00045B8EB02007C
:10035000A94105D24046214690461C460B4602461E
:1003600023F00040104347D0270DC7F30A00C3F322
:100370000A510290401A019040286BDAC3F313002F
:1003800040F4801B0098924620B10023D2EB030A70
:1003900063EB0B0B01985946C0F14002504600F048
:1003A00093F906460D4650465946019A00F09BF9CE
:1003B00010EB08006141002487EA115284EAE773D8
:1003C0001A4340D0009A62B3019A012A4FEA0752B9
:1003D00015DC001B61EB02014FF0004202EA0752FC
:1003E000CDE90042001C41F5801132462B4600F059
:1003F0009BF903B0BDE8F08F40462146F9E7001BAA
:1004000061EB0201001C41F5801300185B412018CC
:10041000A2F5001747EB030140EAD570B6196D410C
:1004200011E06D084FEA360645EAC0754FEA0752FB
:10043000001B61EB0201001C41F5801149084FEAE5
:1004400030000019514132462B4603B0BDE8F04F51
:1004500000F05BB90098012240000023D0EB0202BB
:1004600063EBE073009821464FEAE074B8EB0000BC
:1004700061EB0401E9E783F000435BE781F00041B1
:1004800058E72DE9FE4F81EA030404F0004421F00F
:10049000004100944FF0000B23F0004350EA0104A8
:1004A0005ED052EA03045BD0C3F30A54C1F30A5589
:1004B0002C44A4F2F3340194A0FB0254C1F31301C1
:1004C00041F48011C3F3130343F4801301FB02448E
:1004D00000FB034E840A970A44EA815447EA835793
:1004E000A4FB076802958D0A05FB07854FEA932C4C
:1004F00004FB0C542705029D4FEA065847EA1637BD
:10050000B5EB08056EEB070C870E920E47EA8117D4
:1005100042EA8312A7FB0201B6EB0B0164EB000475
:100520002B0D43EA0C335E1844EB1C50DA4651465F
:10053000E7FB0201C5F313044FEA0B3343EA1453FC
:100540004FEA0432019C43EA0603A4F10C0402942E
:10055000009CCDE900B400F0E7F803B0BDE8F08FEF
:1005600000200146F9E72DE9F04D81EA030404F08B
:10057000004B21F0004514464FF0000A23F00041E3
:1005800050EA050220D054EA01021DD0C5F30A57F3
:100590000246C5F31303C1F31300C1F30A5640F436
:1005A000801543F48013A7EB0608101BD64608F20B
:1005B000FD3873EB050002D308F1010801E0921841
:1005C0005B41B8F1000F03DA00200146BDE8F08D71
:1005D00000204FF48011064684460EE0171B73EB93
:1005E000050705D3121B63EB050306434CEA010C18
:1005F00049084FEA300092185B4150EA0107EDD1FB
:1006000052EA030012D082EA040083EA050108439B
:1006100005D0101BAB4106D20122002306E00022C8
:100620004FF0004302E06FF0010253101AEB060096
:100630004CEB085110EB0A0041EB0B01BDE8F04D0B
:1006400000F063B8C1F30A52C1F3130140F2FF3363
:1006500041F480119A4202DA00200146704740F2CC
:1006600033439A42A2F2334202DC5242FFF75ABDB0
:1006700000F02AB830B5041E71F1000404DB4FF01D
:100680000044404264EB0101141E73F1000405DBD9
:100690001C464FF00043524263EB0403994208BFEB
:1006A000904230BD064C074D06E0E06840F0010383
:1006B00094E8070098471034AC42F6D3FFF71AFDD0
:1006C0005C3A00087C3A0008202A04DB203A00FA51
:1006D00002F1002070479140C2F1200320FA03F399
:1006E000194390407047202A06DBCB17203A41FA85
:1006F00002F043EAE07306E041FA02F3D040C2F1AF
:100700002002914008431946704710B5141E73F13A
:10071000000408DA401C41F1000192185B411A43C1
:1007200001D120F0010010BD2DE9F04D92469B460D
:1007300011B1B1FA81F202E0B0FA80F220329046B3
:10074000FFF7C2FF04460F4640EA0A0041EA0B01E8
:1007500053465A46084313D0114653EA010019D0B4
:10076000C8F140025046FFF7DDFC05460E465046F4
:1007700059464246FFF7A8FF084305D0012004E090
:1007800020463946BDE8F08D0020054346EAE07674
:100790002C4337430A986305E40AA0EB08000022C3
:1007A000FD0A44EA47540A3002D500200146E9E731
:1007B000010510196941DDE9084500196941BDE8E5
:1007C000F04DA2E7FEE706E00021491CC9B20A2964
:1007D000FBD3401E80B20028F6D1704710B500F060
:1007E00009F80122BDE810402021014800F0DFBCDB
:1007F000000801401FB52020009001200190032037
:1008000003906946014800F0EFFB1FBD000801405E
:100810002DE9F0410025154E2C46012720213046B8
:1008200000F0C0FC0028F9D02820FFF7CCFF2021E1
:10083000304600F0B7FC01280BD0C4F1070007FADE
:1008400000F08543641CE4B2082CE7D32846BDE8D9
:10085000F0812021304600F0A5FC0128F9D0C4F138
:10086000070007FA00F0C0B20543EBE700080140BB
:100870002DE9FF470446FFF7BDFF384D0022202138
:10088000284600F094FC122000F09CFB012220215D
:10089000284600F08CFC1E20FFF795FF20200090DA
:1008A00000200190012002906946284600F09CFB40
:1008B0002021284600F076FCF0BB2021284600F0DD
:1008C00071FC0028F9D02021284600F06BFC01289B
:1008D000F9D0FFF79DFF2070FFF79AFF6070FFF7D8
:1008E00097FFA070FFF794FFE070FFF791FF207172
:1008F000FFF780FF01222021284600F058FC2778CE
:10090000607807EBC701804601EB071100EB81001F
:10091000FFF77AFCDFF848904946FFF737FCA06004
:10092000A578E67805EBC50000EB051006EB800026
:10093000FFF76AFC494600E00EE0FFF727FCE060A5
:1009400007EB0800A91908442179C0B2814203D1FC
:10095000012004B0BDE8F0870020FAE7000801405C
:100960000000C8427047000030B59FB00B460092AF
:10097000024600240AA101A801F0D2FE4FF47A75C4
:100980002B4600220CA101A800F032F810B1012082
:100990001FB030BD641CE4B20A2CF1D30020F7E78D
:1009A00041542B43575341503D222573222C22257D
:1009B00073222C312C2564004F4B00000B49B1F8F9
:1009C00000046FF30E00A1F80004B1F8000420F455
:1009D0000040A1F80004002002464FF480630A544E
:1009E000401C80B29842FAD37047000018000020E3
:1009F0002DE9F041174C0E461F46B4F80014154679
:100A00006FF30E01A4F80014024613A1144801F07C
:100A100027FD56EA050019D0384600F0D3FAB4F89D
:100A200000140020C1F30E01605421460DA001F016
:100A300067FE2EB1314625B12046FFF795FB28B958
:100A400029460448FFF790FB002800D00120BDE8AC
:100A5000F08100001800002025730D0A000000003E
:100A6000004400402573000030B585B0002408B173
:100A7000012200E000220BA1684601F051FE4FF474
:100A8000FA752B4600220BA16846FFF7B1FF10B1A3
:100A9000012005B030BD641CE4B20A2CF1D3002063
:100AA000F7E7000041542B4349504D55583D25640C
:100AB000000000004F4B000010B54FF47A7000F0BA
:100AC00081FA05A1054801F0CBFCBDE810404FF4C8
:100AD000FA7000F077BA00002B2B2B000044004086
:100AE00030B51B4885B0816941F00401816181699D
:100AF00001F004010491816941F004018161806980
:100B0000144D00F0040004900420009002200324FF
:100B1000019069460394284600F066FA00210820F7
:100B2000CDE9000102916946284600F05DFA0022F5
:100B30001021284600F03BFB10200090012001907E
:100B400069460394284600F04FFA05B030BD000016
:100B5000001002400008014010B5FFF7C1FF00F08F
:100B600057F9BDE8104000F0B5B8000070B50D466B
:100B700004464FF4FA7300220CA10DA0FFF738FFD2
:100B80000EA11048FFF7F0FA00280BD00022801DBC
:100B900005E0815CA154222905D0521CD2B2AA42A0
:100BA000F7D3012070BD0020A054FAE74F4B00009E
:100BB00041542B43494653520000000041504950D4
:100BC0002C2200001800002030B59FB00B460246D2
:100BD00000240BA1684601F0A3FD41F288352B46A5
:100BE00000220CA16846FFF703FF10B101201FB0DF
:100BF00030BD641CE4B20A2CF1D30020F7E70000FA
:100C000041542B43574A41503D222573222C222523
:100C1000732200004F4B000070B50546002440F6DB
:100C2000C41625B1012D07D0022D0DD112E0334697
:100C30000BA20EA10EA003E0334609A20BA10FA048
:100C4000FFF7D6FE002804D1641CE4B20A2CE8D3D6
:100C5000002070BD334602A204A10BA0F0E7000003
:100C60006E6F206368616E67650000004F4B000087
:100C700041542B43574D4F44453D310041542B4384
:100C8000574D4F44453D320041542B43574D4F443F
:100C9000453D330070B505460024FFF78FFE0A4836
:100CA000B0F800140904FBD5B0F800240021C2F309
:100CB0000E02815425B905A10348FFF755FA00B18A
:100CC000014C204670BD0000180000202B49504404
:100CD0000000000010B5084C00221021204600F052
:100CE00066FA4FF4FA7000F06DF920460122BDE873
:100CF0001040102100F05BBA0008014030B585B00B
:100D00001D460C4638B10A4611A1124801F0A8FB55
:100D1000012005B030BD052D06D2931C2A460EA138
:100D2000684601F0FDFC04E010A16846921C01F049
:100D3000F7FC4FF47A752B46002210A16846FFF7A6
:100D400057FE2B4600220EA12046FFF751FEE0E79A
:100D5000257300000044004041542B434950534543
:100D60004E443D25642C25640000000041542B4373
:100D7000495053454E443D25640000003E2000008C
:100D800053454E44204F4B0030B5BDB015464FF48F
:100D9000FA740B46E0B1012213A1684601F0C0FCD1
:100DA0002A4616A11EA801F0BBFC2346002217A16B
:100DB0006846FFF71DFE48B12346002213A11EA876
:100DC000FFF716FE10B101203DB030BD0020FBE75B
:100DD000002205A1684601F0A3FC234600220BA1D6
:100DE0006846FFF705FEEFE741542B434950534552
:100DF000525645523D25642C2573000041542B4327
:100E0000495053544F3D2573000000004F4B0000E4
:100E1000154808B5C16941F40031C161C06900F4E9
:100E200000300090FFF75CFE114810490C22016071
:100E30004FF4E131416000218160C160C0E90412DA
:100E40008161C16100F096FD00220121262000F0A1
:100E500021FA262000F012FABDE8084001220549D7
:100E6000034800F025BE000000100240004400408E
:100E70001C040020010000207047000070B50646E9
:100E80000D46002411A001F03BFC0220FFF7C4FE38
:100E900040F6C41311A213A113A0FFF7A9FD03E0AC
:100EA000641CE4B2032C0CD029463046FFF78CFEBC
:100EB0000028F5D02A463146BDE870400CA001F06C
:100EC0001FBCBDE8704014A001F01ABCBFAACABC88
:100ED00077696669C5E4D6C30D0A0000726561646E
:100EE000790000004F4B000041542B525354000036
:100EF000C1ACBDD357494649B3C9B9A6A3A10D0A90
:100F0000737369643A25730970617373776F7264E0
:100F10003A25730D0A00000077696669C1ACBDD33C
:100F2000CAA7B0DCA3A10D0A0000000010B590F81C
:100F300021100024022903D00421816301243DE013
:100F400001680A6822F00E020A6001680A6822F04D
:100F500001020A601A4A0168914201D1012121E08F
:100F6000174A1432914201D110211BE0144A283251
:100F7000914201D1891515E0114A3C32914201D1CB
:100F800089140FE00E4A5032914202D14FF4803161
:100F900008E00B4A6432914202D14FF4801101E023
:100FA0004FF08071064A083A5160012180F8211003
:100FB000002180F82010416B01B18847204610BD08
:100FC0000800024070B5044600F0F6F80546601CC3
:100FD00002D004480078044400F0EEF8401BA04220
:100FE000FAD370BD080000202DE9F84FDFF890A17A
:100FF00000220AF1040B144601274FF00F090BF1F0
:10100000040E00BF0B6807FA04F52B40AB4274D105
:10101000DFF870C14E68A6EB0C0866452BD00DDCDE
:10102000032E34D005DC36B3012E19D0022E2FD179
:101030001BE0112E16D0122E2AD119E0B8F5881F08
:1010400019D006DCB8F5803F15D0B8F5801F1FD148
:1010500011E0B8F5001F0ED0B8F5041F18D10AE052
:10106000CA6815E0CA68121D12E0CA6808320FE0AB
:10107000CA680C320CE08A682AB1012A4FF00802D3
:1010800003D0456104E0042202E0056100E0002293
:10109000FF2B01D8064601E000F104064FEA840563
:1010A00001D9A5F12005D6F800C009FA05F82CEA07
:1010B000080C02FA05F54CEA050CC6F800C04D68AC
:1010C000ED0057D5304DAE6946F00106AE61AD6911
:1010D00024F0030605F0010500952C4D06EB050CE8
:1010E000DCF80850A6074FEA167809FA08F6B54367
:1010F000274EB04202D1002610E03BE0254EB04220
:1011000001D101260AE0244EB04201D1022605E0B9
:10111000224EB04201D1032600E0042606FA08F66A
:101120002E43CCF808604D68DAF80060ED035546B0
:1011300001D51E4300E09E432E604D68DBF8006041
:10114000AD035D4601D51E4300E09E432E604D6811
:10115000DEF80060ED02754601D51E4300E09E43B7
:101160002E604D68AD020E4D2E6801D51E4300E085
:101170009E432E60641C102CFFF444AFBDE8F88F32
:101180000004014000001110001002400000014066
:1011900000080140000C0140001001400014014013
:1011A0000C0401408068084000D0012070470AB15B
:1011B000016170470904FBE701488068704700003F
:1011C000080000200248816802781144816070475D
:1011D00008000020074810B5016841F010010160C7
:1011E000032000F077F8002000F006F800F024F863
:1011F000002010BD0020024070B50D4D04464FF494
:101200007A712878B1FBF0F00A490968B1FBF0F077
:1012100000F012FB48B9102C07D200222146501EC4
:1012200000F038F800206C6070BD012070BD000037
:1012300008000020040000200E4808B5816941F034
:1012400001018161816901F001010091C16941F0F1
:101250008051C161C06900F080500090052000F00D
:1012600039F80548416821F0E06141F000714160C2
:1012700008BD0000001002400000014000F01F0205
:10128000012191404009800000F1E020C0F80011E8
:1012900070470000F0B40E4B1B680C46C3F30223EA
:1012A000C3F10705042D00D90425191D072901D212
:1012B000002300E0DB1E012606FA05F1491E21404D
:1012C00099409E40761E16403143F0BC00F045BD6B
:1012D0000CED00E0064900F0070208684FF6FF0336
:1012E000184040EA0220034A10430860704700009B
:1012F0000CED00E00000FA052DE9F047DFF854811D
:1013000005460E46D8F8000000F00700B0420CD2A7
:10131000D8F8001021F007013143C8F80010D8F8C0
:10132000000000F00700B0426FD128684A4C8107E6
:1013300012D5400703D5606840F4E060606028780B
:10134000000703D5606840F4605060606068A96879
:1013500020F0F000084360602878C00744D0686837
:10136000012816D02168022816D0890700294CDAF6
:10137000616821F0030101436160FFF71DFF6968A7
:10138000074641F2883001290ED00229814618D043
:1013900026E021688903E9E78901E7E7FFF70CFF09
:1013A000C11B494501D918E081466068C0F381003E
:1013B0000128F3D118E000BFFFF7FEFEC11B49452D
:1013C0000BD86068C0F381000228F5D10CE000BFA3
:1013D000FFF7F2FEC11B494502D90320BDE8F087A3
:1013E000606810F00C0FF3D1D8F80010404601F0FF
:1013F0000701B1420BD9016821F0070131430160B7
:10140000006800F00700B04201D00120E6E728782C
:10141000400705D56068E96820F4E0600843606033
:101420002878000706D56068296920F4605040EAF2
:10143000C100606000F03CF86168084AC1F3031124
:10144000515CC840064908600020FFF7D5FE002027
:10145000C4E700000020024000100240443A0008A7
:1014600004000020014800687047000004000020CC
:101470000448054900684968044AC1F30221515CE7
:10148000C84070470400002000100240543A000891
:101490000448054900684968044AC1F3C221515C07
:1014A000C84070470400002000100240543A000871
:1014B00012A185B00FC98DE80F0014A0144A00686E
:1014C00004905168134801F00C03042B10D0082B32
:1014D0000ED1C1F38343C9031DF803000AD5516837
:1014E00004AAC1F34041515C0A4A5043B0FBF1F0F9
:1014F00005B0704708494843FAE7000002030405B5
:10150000060708090A0B0C0D0E0F1010010200004F
:101510000010024000127A0000093D002DE9F84F4A
:1015200004460078B94DC00748D06868C0F3810010
:10153000012807D06868C0F38100022809D16868D3
:10154000C00306D52868800338D5606800286FD0AE
:1015500034E06068B0F5803F0BD010B1B0F5A02F3B
:1015600011D0286820F480302860286820F480207A
:1015700002E0286840F480302860606888B1FFF796
:101580001BFE064609E0286840F480202860F0E74A
:10159000FFF712FE801B642875D828688003F7D5F2
:1015A0000CE0FFF709FE064605E000BFFFF704FE6A
:1015B000801B6428F0D828688003F7D42078944EE4
:1015C00080074FF001094FF000083BD5686810F024
:1015D0000C0F07D06868C0F38100022809D1686841
:1015E000C00306D42868800714D5206901281FD1BC
:1015F00010E02069B0B1C6F80090FFF7DDFD0746A6
:1016000005E000BFFFF7D8FDC01B0228C4D828683A
:101610008007F7D52868616920F0F80040EAC1002A
:1016200028600FE0C6F80080FFF7C6FD074606E019
:10163000E9E000BFFFF7C0FDC01B022823D82868DF
:101640008007F7D4207800072CD57248A169D9B15A
:10165000C0F80090FFF7B0FD074604E0FFF7ACFDCF
:10166000C01B02280FD8686A8007F7D56A484FF474
:10167000FA510068B0FBF1F0009000BF0098411EE5
:101680000091FAD20EE080E0C0F80080FFF794FDF0
:10169000074604E0FFF790FDC01B022875D8686A72
:1016A0008007F7D42078400760D5E8690027C0009C
:1016B00008D4E86940F08050E861E869012700F04B
:1016C0008050009055480168C90513D401688346CD
:1016D00041F480710160FFF76FFD824606E000BFB4
:1016E000FFF76AFDA0EB0A0064284ED8DBF8000083
:1016F000C005F5D5E06801280AD008B1052813D047
:10170000286A20F001002862286A20F0040002E024
:10171000286A40F001002862E06841F2883B98B1F5
:10172000FFF74AFD82460BE0286A40F00400286279
:10173000EEE700BFFFF740FDA0EB0A0159455AD87C
:10174000286A8007F6D50CE0FFF736FD824605E0F3
:10175000FFF732FDA0EB0A0159454CD8286A8007F3
:10176000F6D41FB1E86920F08050E861E06988B3E1
:101770006968C1F38101022945D00228C6F860805A
:1017800004D0FFF719FD044638E034E0FFF714FDFC
:10179000074604E0FFF710FDC01B02282BD828687D
:1017A0008001F7D4206AB0F5803F05D16868A16850
:1017B00020F4003008436860D4E9080108436968F0
:1017C00021F4741108436860C6F86090FFF7F4FCD8
:1017D000044606E015E000BFFFF7EEFC001B022800
:1017E00009D828688001F7D50BE000BFFFF7E4FCBB
:1017F000001B022802D90320BDE8F88F2868800169
:10180000F4D40020F8E70120F6E7000000100240C1
:101810000000424280044242040000200070004068
:101820004FF0E0210428086903D020F0040008618B
:10183000704740F00400FAE710B5401EB0F1807F19
:1018400001D3012010BD4FF0E02460610F2160172B
:1018500000F083FA0020A06107202061002010BD65
:101860007047000070B5026804461068D16853697B
:1018700010F00F0F50D003F0010501F490763543BE
:101880005DD0C20705D0CA0503D5E26B42F0010264
:10189000E263420705D5DA0703D0E26B42F00202A9
:1018A000E263820705D5DA0703D0E26B42F0040257
:1018B000E263020705D5DA0703D0E26B42F00802C3
:1018C000E263E26B002A33D0800604D5880602D595
:1018D000204600F02EFC20684069E16BC0F38010C8
:1018E000090700D428B3204600F015FC20684169A0
:1018F00049061AD5416921F040014161606BA0B1F0
:101900001B494163606BFFF711FB002810D0606B2F
:10191000416BBDE870400847830610D58B060ED595
:101920002046BDE8704000F004BC2046FFF798FF59
:1019300070BD2046FFF794FF0020E06370BD0306F2
:1019400006D50B0604D52046BDE8704000F0F4BC77
:101950004006F3D54806F1D5D168204621F0400174
:10196000D160202184F8391000F04FF970BD0000DB
:101970000721000870B5040004D094F83900002550
:1019800010B106E0012070BD84F83850204600F008
:1019900023F8242084F839002068C16821F400511C
:1019A000C160204600F010FC2068016921F49041DC
:1019B00001612068416921F02A0141612068C16804
:1019C00041F40051C160E563202084F8390084F8B7
:1019D0003A00002070BD000070B586B0002400946D
:1019E0000194029403942E4E03682E490220032290
:1019F0002D4DB34226D18B6943F480438B618B69B3
:101A000003F4804304938B6943F004038B61896979
:101A1000039201F0040104910102CDE9001069462E
:101A20002846FFF7E1FA2815CDE900046946284663
:101A30000294FFF7D9FA032211462520FFF72AFC6A
:101A4000252028E0194EB34227D1CB6943F4003357
:101A5000CB61CB6903F4003304938B6943F0040337
:101A60008B618969039201F0040104910421CDE99D
:101A7000001069462846FFF7B7FA0820CDE90004B0
:101A8000694628460294FFF7AFFA02221146262043
:101A9000FFF700FC2620FFF7F1FB06B070BD000049
:101AA000003801400010024000080140004400409E
:101AB00090F83A30202B22D1F9B1F2B190F83830B9
:101AC000012B1CD081628285C2850021C163222244
:101AD00080F83A2080F838100168CA6842F48072B1
:101AE000CA6001684A6942F001024A610068C1683F
:101AF00041F02001C16000207047012070470220A2
:101B0000704700000F4830B4B0F8001440F2FF32C4
:101B1000C1F30E0191420ED20B490B78B0F80014BC
:101B2000B0F80024C1F30E014418491C61F30E0201
:101B3000A0F80024237030BC012203490348FFF7BA
:101B4000B7BF000018000020010000201C04002086
:101B50002DE9F843044690F839001F4616460D4615
:101B6000202850D1A5B19EB194F8380001284AD060
:101B7000012084F838004FF00008C4F83C80212090
:101B800084F83900FFF718FBA6848146E68426E036
:101B90000120BDE8F883E08C401EE084A0684B463D
:101BA000B0F5805F4FF000024FF0800120460097B3
:101BB00003D000F0F2FBE8B90DE000F0EEFBC8B98D
:101BC00028882168C0F308004860206908B16D1CAE
:101BD00005E0AD1C03E0216815F8010B4860E08CBE
:101BE0000028D8D14B46002240212046009700F023
:101BF000D4FB08B10320CCE7202084F8390084F816
:101C000038800020C5E70220C3E77047FEE70000E8
:101C10002DE9F04186B000252B48009501950295ED
:101C20000395816941F020018161816901F0200102
:101C30000491816941F004018161816901F004012D
:101C40000491816941F00801816180691F4F00F0B2
:101C500008000490012230213846FFF7A8FA00223C
:101C600040213846FFF7A3FADFF864804FF470761E
:101C7000002231464046FFF79AFA102001248DE8F1
:101C800031000320039069463846FFF7ADF9202064
:101C90008DE83100694638460394FFF7A5F94020E6
:101CA000CDE9000402200290039069463846FFF710
:101CB0009BF9CDE900640294694640460394FFF71E
:101CC00093F906B0BDE8F081001002400008014021
:101CD000000C01400C4810B50A4901604FF4E13195
:101CE0004160002181600C22C160C0E90412816161
:101CF000C161FFF73FFE002803D0BDE81040FFF7A9
:101D0000BBB810BD003801406C0400200C4810B571
:101D10000A4901604FF4E1314160002181600C22E9
:101D2000C160C0E904128161C161FFF723FE002890
:101D300003D0BDE81040FFF79FB810BD004400403D
:101D4000AC040020FEE70146002000E0401C11F832
:101D5000012B002AFAD1704770470907090E0028A5
:101D600006DA00F00F0000F1E02080F8141D704743
:101D700000F1E02080F80014704770B5002404F1F1
:101D8000B000C0B2002100F01DF90021084600F0AB
:101D900019F90021102000F015F90025012100207B
:101DA00000F010F96D1CEDB2802DF7D3641CE4B285
:101DB000082CE4D370BD10B50021AE2000F002F96C
:101DC0000021084600F0FEF80021102000F0FAF88B
:101DD0000021402000F0F6F80021812000F0F2F808
:101DE0000021CF2000F0EEF80021A12000F0EAF859
:101DF0000021C82000F0E6F80021A62000F0E2F85B
:101E00000021A82000F0DEF800213F2000F0DAF8E1
:101E10000021D32000F0D6F80021084600F0D2F8C7
:101E20000021D52000F0CEF80021802000F0CAF873
:101E30000021D92000F0C6F80021F12000F0C2F8FE
:101E40000021DA2000F0BEF80021122000F0BAF8DC
:101E50000021DB2000F0B6F80021402000F0B2F8AD
:101E60000021202000F0AEF80021022000F0AAF8A6
:101E700000218D2000F0A6F80021142000F0A2F827
:101E80000021A42000F09EF80021A62000F09AF87E
:101E90000021AF2000F096F80021AF2000F092F86A
:101EA000FFF76BFF0021BDE810400846AFF300804C
:101EB00010B50446B031C8B2002100F083F81020FC
:101EC00040EA1410002100F07DF804F00F00BDE896
:101ED000104040F00100002100F074B82DE9F041FD
:101EE000203A00240D468046D6B27F2803D9002030
:101EF0008D1C8046EDB2102B09D00C2B29D0BDE8EB
:101F0000F041102300211CA2084600F03FB82946EA
:101F1000FFF7CEFF1B4F00BF04EB06100121385C1A
:101F200000F050F8641CE4B2082CF5D36D1CE9B243
:101F30004046FFF7BDFF002404EB061038440121A2
:101F4000007A00F03FF8641CE4B2082CF4D3BDE83A
:101F5000F0816D1CE9B2FFF7ABFF0B4906EB4600C1
:101F600001EB40050121285D00F02CF8641CE4B26F
:101F7000062CF7D3EBE7000053495A45204552524F
:101F80004F522100543400082C3200082DE9F04152
:101F9000984617460E46044600250DE04346314656
:101FA0002046FFF79BFF0834E4B2782C02D90024C6
:101FB000B61CF6B26D1CEDB27A5D002AEED1BDE81A
:101FC000F08100002DE9F0411C4D064609B10122C7
:101FD00000E0002280212846FFF7E9F80022402196
:101FE0002846FFF7E4F800244FF400784FF4807798
:101FF000002239462846FFF7DAF8300601D50122DB
:1020000000E0002241462846FFF7D1F80122394678
:102010002846FFF7CCF87006641C060EE4B2082CC4
:10202000E6D3012240212846FFF7C1F82846BDE843
:10203000F04101228021FFF7BAB80000000C0140F6
:1020400070477047FFF7BEB830B58FB0282168469B
:10205000FEF77FF814210AA8FEF77BF80121080497
:10206000CDE900100024029402250491CDE9075027
:102070004FF4E01009906846FFF750FA0F20CDE9C1
:102080000A056802CDE90C4002210AA80E94FFF768
:1020900033F90FB030BD00000D48016841F0010177
:1020A000016041680B4A1140416001680A4A1140D1
:1020B0000160016821F480210160416821F4FE0182
:1020C00041604FF41F0181600449C00308607047FC
:1020D000001002400000FFF8FFFFF6FE08ED00E0F0
:1020E00010B5FFF7BFF94FF47A71B0FBF1F0FFF7CD
:1020F000A3FB0420FFF794FB0022BDE8104011462B
:10210000501EFFF7C7B810B5406A0021C185C184D1
:10211000FFF7A6FB10BD0168CA6822F49072CA607E
:1021200001684A6922F001024A61202180F83A10D0
:10213000704710B590F83A10222901D0022010BD46
:102140008168B1F5805F11D00169002901681FD055
:10215000496801F07F03816A4A1C82620B70C18D5D
:10216000491E0904090CC18518D02BE00269816A57
:10217000002A0268526805D0D2B20A80816A491CDE
:102180008162ECE7C2F308020A80816A891CF7E7E2
:102190004A68816A4B1C83620A70E0E70168CA687A
:1021A00022F02002CA600168CA6822F48072CA6004
:1021B00001684A6922F001024A61202180F83A1040
:1021C000FFF7A0FC002010BD2DE9F0410446006897
:1021D0000169E26821F44051114301612169A0685D
:1021E0000843616908432168CA6841F20C639A4355
:1021F0000243CA6020684169A26921F44071114319
:1022000041614C4920686425322688423CD1FFF761
:102210003FF900EBC00101EB001061688900B0FBE1
:10222000F1F7FFF735F900EBC00101EB0010616831
:10223000B0468900B0FBF1F0B0FBF5F06FF018018B
:10224000484307EB800106EB0110B0FBF5F000F00E
:10225000F006FFF71DF900EBC00101EB001061680B
:102260008900B0FBF1F0B0FBF5F006EB0016FFF7CC
:102270000FF900EBC00101EB001061688900B0FBB1
:10228000F1F7FFF705F93BE0FFF7F2F800EBC001CB
:1022900001EB001061688900B0FBF1F7FFF7E8F887
:1022A00000EBC00101EB00106168B0468900B0FB93
:1022B000F1F0B0FBF5F06FF01801484307EB800137
:1022C00006EB0110B0FBF5F000F0F006FFF7D0F8D8
:1022D00000EBC00101EB001061688900B0FBF1F078
:1022E000B0FBF5F006EB0016FFF7C2F800EBC001FB
:1022F00001EB001061688900B0FBF1F7FFF7B8F857
:1023000000EBC00101EB001061688900B0FBF1F047
:10231000B0FBF5F06FF01801484307EB800108EBC4
:102320000110B0FBF5F0216800F00F003044886028
:10233000BDE8F0810038014090F83910212901D022
:10234000022070478168B1F5805F016A0BD04A1C9A
:102350000262026809785160C18C491E0904090CA7
:10236000C1840ED017E009880268C1F308015160EA
:1023700001690029016A02D0491C0162ECE7891C4D
:10238000FBE70168CA6822F08002CA600068C16881
:1023900041F04001C160002070472DE9F0419846AE
:1023A00017460E460446069D1DE0681C1BD02DB145
:1023B000FEF702FFA0EB0800A84214D92068C1680C
:1023C00021F4D071C1602068416921F001014161AF
:1023D000202084F8390084F83A00002084F838007E
:1023E0000320BDE8F0812068006836EA000004D0D0
:1023F0000020B842D9D00020F3E70120F9E700001F
:102400000148FFF72FBA00006C04002010B50D48FA
:10241000FFF728FA0B480068C068C00611D50A48C3
:10242000B0F8001441F40041A0F800140748006817
:10243000074C08A160700448FDF796FE00B101202A
:10244000207010BD1C04002018000020044400402F
:1024500000000020434C4F5345440D0A000000008B
:102460000FB42DE9F04186B00EAC0A264FF00008FB
:10247000444D10E05C2817D0252829D0FF230122E5
:102480004048FFF765FB0D98401C0D9028680168D7
:10249000C9430906FBD40D9908780028EAD106B093
:1024A000BDE8F0015DF814FB491C0D9108786E2819
:1024B00005D0722813D10D208DF8100001E08DF8A1
:1024C0001060FF23012204A92E48FFF741FB1AE008
:1024D000491C0D910878642819D0732802D0491C32
:1024E0000D91D8E780CC0BE0FF2301223946254827
:1024F000FFF72EFB29680868C0430006FBD47F1C49
:1025000038780028F0D10D98401C0D90C3E701CC1D
:102510000027694600281FD007DA4FF02D028DF8FA
:102520000020C0F1000001F1010142F2107300BF70
:1025300090FBF3F252EA070C06D002F1300701F8E3
:10254000017B02FB1300012793FBF6F3002BEFDC6A
:1025500081F800806F4611E030208DF800008DF882
:102560000180F7E7FF23012239460648FFF7F0FA1A
:1025700028680168C9430906FBD47F1C3878002805
:10258000F0D1C0E71C040020FEE7000030B593B096
:10259000142108A8FDF7DDFD20216846FDF7D9FDCF
:1025A00014210DA8FDF7D5FD2AA12DA0FEF766FC8C
:1025B0002DA000F0A5F8042226A12FA0FEF7D4F943
:1025C000FEF77AFA0120FEF74FFA2FA230A1012080
:1025D000FEF7DAFB142108A8FEF7C8FA2EA000F0D7
:1025E0008FF832480068C16841F01001C16008AA44
:1025F0002FA1684600F094F825A22FA10DA800F0A5
:102600008FF8002110232EA20846FFF7BFFC1023ED
:1026100030A202210020FFF7B9FC10236A460421F2
:102620000020FFF7B3FC10230DAA06210020FFF7BE
:10263000ADFC2C4C2C4D0020FEF72CFBB4F8000414
:102640000004F8D528786528F5D128A000F058F8BE
:1026500013B030BD313233343536373839000000ED
:1026600076656973000000000D0ABDA8C1A2C8C844
:10267000B5E30D0A00000000766569735F6573704D
:1026800038323636000000003138303000000000AB
:102690003830383800000000C5E4D6C32045535018
:1026A0003832363620CDEAB1CF0A00001C040020B3
:1026B00049503A2573000000506F72743A25730038
:1026C000737369643A766569735F6573703832361F
:1026D000360000006B65793A31323334353637389D
:1026E0003900000018000020010000200D0AC1ACD4
:1026F000BDD3415050CDEAB3C9A3A10D0A000000DB
:102700000FB4054B10B503A9044A029800F0EEF887
:1027100010BC5DF814FB00002530000814000020F8
:102720000FB4084B10B504A902AA039800F0DEF814
:10273000044602A9002000F070FC204610BC5DF8A1
:1027400014FB00001B30000802E008C8121F08C17B
:10275000002AFAD170477047002001E001C1121F22
:10276000002AFBD1704700002DE9FF5F82B00021F5
:10277000DDE90430020DDDF840B0034318D044F623
:102780001050A2F2FF3242431514119801281FD0B5
:10279000A5EB0B00401C5FEA000A4FF000064E4F0D
:1027A000DFF83891B046504615D5CAF1000413E061
:1027B000119801244AA3012801D16FEA0B01029864
:1027C000119AC0E90031C0E9024206B0BDE8F09FAD
:1027D000CBF10000DFE704460021404A491842EBF4
:1027E0000450CDE9001012E0E00707D032463B4626
:1027F00040464946FDF745FE8046894632463B46FF
:1028000010461946FDF73DFE06460F466410002CA3
:10281000EAD1DDE90401DDE90023BAF1000F06DAAF
:10282000FDF72FFE42464B46FDF72BFE05E0FDF778
:102830009AFE42464B46FDF796FE04460E4600229F
:10284000284BFDF717FF03D84FF0FF30014607E094
:102850000022254B20463146FDF76CFDFDF7F2FEC8
:10286000102409E0002C0ADB0A220023FDF7FAFC01
:10287000039B30321A55641E50EA0102F2D1641CE7
:10288000039AC4F111031444119A012A03D00122BE
:1028900008430DD10AE0084304D000204FF0110B8B
:1028A000119072E7A3EB0B056D1E0DE05B4504DD97
:1028B0004FF0000205F1010504E003DA4FF00002D9
:1028C000A5F10105002AECD002981199C0E9023166
:1028D000C0E9004579E70000000014400000F03F27
:1028E000300000000000F0430000E03F2DE9FF4F02
:1028F00095B09B468946064600250FE2252877D1EC
:1029000000242746F84A0121059400E0044316F804
:10291000013F203B01FA03F01042F7D130782A281A
:1029200011D06FF02F033078A0F13002092A16D8A9
:10293000059A44F0020402EB820203EB42021044C7
:10294000761C0590EFE759F8042B0592002A03DA6C
:10295000504244F40054059044F00204761C307850
:102960002E2816D116F8010F44F004042A280DD0A1
:102970006FF02F023078A0F13003092B09D807EB54
:10298000870302EB4303C718761CF3E759F8047B6F
:10299000761C30786C280FD006DC4C2817D06828BD
:1029A0000DD06A2814D104E0742810D07A280FD1F1
:1029B0000DE044F400140AE044F4801401E044F40F
:1029C00040147278824202D104F58014761C761C81
:1029D000307866280BD013DC582877D009DC002823
:1029E00075D04528F6D04628F4D047281AD19DE165
:1029F00018E0632835D0642879D0652812D195E194
:102A0000702873D008DC6728F1D069286FD06E2851
:102A10000DD06F2806D1B5E073282CD0752875D05D
:102A2000782874D05A46179990476D1C75E1C4F305
:102A30000250022809D003280DD0D9F8001004282C
:102A40000DD00D6009F1040967E1D9F80010EA170B
:102A5000C1E90052F6E7D9F800100D80F2E70D70D9
:102A6000F0E719F8041B8DF8001000208DF8010024
:102A7000EA46012003E059F804AB4FF0FF3061074C
:102A80004FF0000102D40DE008F101018846B9427F
:102A90000FDA8045F8DB1AF808100029F4D108E0B5
:102AA00008F1010188468142FADB1AF80810002972
:102AB000F6D105985B46A0EB080721463846179AE1
:102AC00000F094FA284400EB080507E04DE029E106
:102AD0000DE01AF8010B5A4617999047B8F1010812
:102AE000F7D25B4621463846179A13E142E00A22A4
:102AF0000092C4F302524FF0000A022A08D059F89B
:102B000004CB032A4FEAEC710AD00DE029E02AE059
:102B100009F1070121F00702F2E802C1914609E03C
:102B20000FFA8CFC4FEAEC71042A03D14FFA8CFCAB
:102B30004FEAEC71002907DA0A460021DCF1000CAB
:102B400061EB02012D2202E0220504D52B228DF833
:102B50000420012203E0E20701D02022F7E790469B
:102B600059E00A2102E010220DE010214FF0000A86
:102B700000910BE010224FF0000A44F004040827F3
:102B8000009203E008224FF0000A0092C4F30252C0
:102B9000022A05D059F804CB0021032A08D009E005
:102BA00009F1070121F00702F2E802C1914605E0B0
:102BB0001FFA8CFC042A01D10CF0FF0C4FF0000826
:102BC000220728D5702806D0009B83F0100353EA13
:102BD0000A0305D00EE040228DF80420012208E00F
:102BE0005CEA010206D030228DF804208DF8050041
:102BF00002229046009B83F0080353EA0A030AD19D
:102C00005CEA010201D1620705D530228DF804206B
:102C10004FF001087F1E582804D034A003900EA85E
:102C200002900DE036A0F9E753466046009AFDF7A2
:102C300019FB84460398825C0298401E0290027041
:102C40005CEA0100F0D1029806A9081A00F1200AF6
:102C5000600702D524F4803400E00127574502DDE7
:102C6000A7EB0A0000E0002000EB0A0100900598A5
:102C70004144401A0590E00306D45B462146179A6A
:102C8000059800F0B3F90544002706E001A85A466C
:102C9000C05D179990476D1C7F1C4745F6DBE0032C
:102CA0000CD55B462146179A059800F09FF905441C
:102CB00004E030205A46179990476D1C0099481E31
:102CC00000900029F5DC08E0029802995A46007845
:102CD000491C0291179990476D1CBAF10001AAF1A5
:102CE000010AF1DC65E100000928010030313233CE
:102CF0003435363738396162636465660000000038
:102D00003031323334353637383941424344454621
:102D10000000000000F058F90544761C30780028C7
:102D20007FF4ECAD19B02846BDE8F08F620700D4FF
:102D3000062709F1070222F0070CFCE80223E1460E
:102D400003F000485FEA080C02D00FF2702C0DE08F
:102D50005FEA045C02D50FF2682C07E05FEAC47CEE
:102D600002D00FF2602C01E0AFF2700C4FF0FF3890
:102D700023F00043CDF850C065280CD006DC452870
:102D800009D046281DD047283DD13DE0662818D0FF
:102D900067287ED138E00021112F01DB112000E0EF
:102DA000781CCDE9000106A90EA8FFF7DDFCDDE9DE
:102DB0000F010E9A03910021009207F1010A04917C
:102DC0004DE04FF000400097CDE9011006A90EA894
:102DD000FFF7CAFCDDE90F0203920E9B1199002256
:102DE000DDF80CA00093049211B9791C00EB010AE4
:102DF000B7EB0A0004D4C0F1FF3007F1010A0490D8
:102E0000AAEB0700019044E0012F00DA012700211E
:102E1000112F01DD112000E03846CDE9000106A99F
:102E20000EA8FFF7A1FCDDE90F010E9A0391002126
:102E300004910092BA4621070CD40399514500DA57
:102E40008A46BAF1010F05DD009AAAF10101515C31
:102E5000302908D0B84202DA10F1040F06DA012155
:102E6000CDE9011015E0AAF10101E9E7002805DC30
:102E7000049901440491AAEB000102E0411C514570
:102E800000DD8A460499401A401C01904FF0004032
:102E90000290200704D40198504501DBCDF804804E
:102EA00000208DF84F0002980DF14F07B0F1004F50
:102EB00025D02B200E9002984FF0020800280CDA43
:102EC000404202902D200E9007E00A210298FDF763
:102ED000B3F93031029007F8011DB8F10001A8F1F3
:102EE0000108F2DC02980028EFD1791E0E980870D4
:102EF000307800F0200040F0450007F8020D12A8DD
:102F0000C01B00F107081498007800B1012000EB05
:102F10000A01019801EBE07105984144401A401EF6
:102F20000590E00306D45B462146179A059800F009
:102F30005DF805441498007818B15A4617999047DF
:102F40006D1CE00324D55B462146179A059800F0D6
:102F50004DF805441CE00498002807DBDDE9030177
:102F6000884203DD0098405C179901E017993020F2
:102F70005A469047049805F10105401C04900198B9
:102F8000401E019004D12E205A46179990476D1C7F
:102F9000BAF10001AAF1010ADDDC05E017F8010B26
:102FA0005A46179990476D1CB8F10001A8F1010825
:102FB000F4DC5B462146179A0598ABE62D0000002D
:102FC0002B000000200000002DE9F0410446002500
:102FD0001E461746880404D405E039462020B04731
:102FE0006D1C641EF9D52846BDE8F0812DE9F0413D
:102FF000044600251E469046C80301D5302700E050
:103000002027880404D505E041463846B0476D1CAA
:10301000641EF9D52846BDE8F0810A68531C0B6090
:103020001070704713B54FF6FF73012269460248CE
:10303000FEF78EFD00981CBD6C0400208EB0FEF7DC
:10304000C9F8FFF701F8FFF74BF8FEF7E1FDFEF7CF
:1030500041FEFEF75BFEFEF7AEFEFDF7BFFBFDF7A0
:103060007BFDFFF793FA4D48FDF702FC4FF49660A5
:10307000FDF7A8FFFEF781FE102349A200211E20C4
:10308000FEF784FF494E4A4F4A4C444D4348FDF7F2
:10309000EFFB01281DD1A868FDF7BBF802460B46DF
:1030A00045A105A8FFF73CFBE868FDF7B2F802462A
:1030B0000B4646A16846FFF733FB10236A46022100
:1030C0000020FEF763FF102305AA04210020FEF76D
:1030D0005DFFB6F800040004D8D5B6F8001400204F
:1030E000C1F30E01705421783CA0FFF709FB207852
:1030F00061280DD1012240213846FEF758F83DA045
:10310000FEF721FE024600233AA11846FDF7F6FD20
:10311000207862280DD1002240213846FEF747F87A
:1031200036A0FEF710FE0246002334A11846FDF734
:10313000E5FD2078632815D134216846FDF709F8AC
:10314000E868FDF766F802460B462EA16846FFF7D1
:10315000E7FA6846FEF7F7FD02460023694618467F
:10316000FDF7CCFD2078642815D134216846FCF7A2
:10317000F0FFA868FDF74DF80B46024626A1684609
:10318000FFF7CEFA6846FEF7DEFD024600236946E9
:103190001846FDF7B3FDFDF711FC77E75C0400204E
:1031A0004F4C45442053686F770000001800002002
:1031B000000801400100002048756D69643A20252F
:1031C000302E6620252552480000000054656D70A1
:1031D0003A2020252E30662043000000BDD3CAD5FA
:1031E000B5BDB5C4D7D6B7FBCEAAA3BA25630D0A21
:1031F000000000004C4544204F4E00004C45442048
:103200004F46460074656D70657261747572653AFB
:10321000252E30662043000068756D6964697479F5
:103220003A252E3066202525524800000000000077
:1032300000000000002F000000000700070000143D
:103240007F147F1400242A7F2A120062640813234B
:1032500000364955225000000503000000001C22E2
:103260004100000041221C000014083E0814000820
:10327000083E0808000000A06000000808080808D0
:10328000000060600000002010080402003E514968
:10329000453E0000427F4000004261514946002106
:1032A00041454B31001814127F1000274545453920
:1032B000003C4A494930000171090503003649497B
:1032C000493600064949291E000036360000000034
:1032D000563600000008142241000014141414147F
:1032E0000000412214080002015109060032495928
:1032F000513E007C1211127C007F49494936003E44
:1033000041414122007F4141221C007F49494941FE
:10331000007F09090901003E4149497A007F0808F8
:10332000087F0000417F4100002040413F01007FB5
:1033300008142241007F40404040007F020C027F81
:10334000007F0408107F003E4141413E007F090993
:103350000906003E4151215E007F091929460046B9
:10336000494949310001017F0101003F4040403F90
:10337000001F2040201F003F4038403F00631408DA
:1033800014630007087008070061514945430000B5
:103390007F41410000552A552A55000041417F00D8
:1033A00000040201020400404040404000000102CD
:1033B0000400002054545478007F484444380038B6
:1033C0004444442000384444487F0038545454183E
:1033D00000087E0901020018A4A4A47C007F080450
:1033E00004780000447D4000004080847D00007F20
:1033F000102844000000417F4000007C041804783D
:10340000007C0804047800384444443800FC242438
:1034100024180018242418FC007C08040408004820
:103420005454542000043F444020003C4040207C41
:10343000001C2040201C003C4030403C0044281030
:103440002844001CA0A0A07C004464544C441414E4
:10345000141414140000000000000000000000001C
:1034600000000000000000F8000000000000003331
:103470003000000000100C06100C060000000000D8
:103480000000000040C07840C0784000043F0404C1
:103490003F040400007088FC08300000001820FF82
:1034A000211E0000F008F000E018000000211C03BD
:1034B0001E211E0000F00888700000001E21232439
:1034C0001927211010160E00000000000000000057
:1034D00000000000000000E01804020000000007E7
:1034E0001820400000020418E000000000402018EE
:1034F00007000000404080F0804040000202010FC1
:1035000001020200000000F0000000000101011FA4
:1035100001010100000000000000000080B0700008
:103520000000000000000000000000000001010198
:103530000101010100000000000000000030300027
:103540000000000000000000806018040060180601
:103550000100000000E010080810E000000F10203B
:1035600020100F00001010F8000000000020203F85
:10357000202000000070080808887000003028240F
:1035800022213000003008888848300000182020B0
:1035900020110E000000C02010F8000000070424D5
:1035A000243F240000F8088888080800001921201A
:1035B00020110E0000E0108888180000000F112074
:1035C00020110E0000380808C83808000000003F2D
:1035D000000000000070880808887000001C22218C
:1035E00021221C0000E010080810E0000000312239
:1035F00022110F00000000C0C000000000000030D9
:10360000300000000000008000000000000080602A
:1036100000000000000080402010080000010204AB
:103620000810200040404040404040000404040492
:10363000040404000008102040800000002010084E
:1036400004020100007048080808F0000000003083
:1036500036010000C030C828E810E0000718272411
:1036600023140B000000C038E0000000203C2302BF
:103670000227382008F8888888700000203F202022
:1036800020110E00C0300808080838000718202054
:103690002010080008F808080810E000203F20204B
:1036A00020100F0008F88888E8081000203F20202C
:1036B0002320180008F88888E8081000203F200020
:1036C00003000000C0300808083800000718202058
:1036D000221E020008F808000008F808203F210117
:1036E00001213F20000808F8080800000020203FC2
:1036F0002020000000000808F8080800C080808032
:103700007F00000008F888C028180800203F20012A
:103710002638200008F8080000000000203F202084
:103720002020300008F8F800F8F80800203F003F9B
:10373000003F200008F830C00008F808203F2000B3
:1037400007183F00E01008080810E0000F102020C4
:1037500020100F0008F808080808F000203F210199
:1037600001010000E01008080810E0000F182424F0
:1037700038504F0008F8888888887000203F200063
:10378000030C302000708808080838000038202119
:1037900021221C00180808F8080818000000203F23
:1037A0002000000008F808000008F808001F20208A
:1037B00020201F000878880000C83808000007385B
:1037C0000E010000F80800F80008F800033C0700AC
:1037D000073C0300081868808068180820302C0314
:1037E000032C30200838C800C83808000000203FEB
:1037F0002000000010080808C838080020382621DA
:1038000020201800000000FE020202000000007FDD
:1038100040404000000C30C00000000000000001EB
:103820000638C00000020202FE00000000404040D6
:103830007F000000000004020202040000000000FB
:103840000000000000000000000000008080808078
:103850008080808000020204000000000000000060
:1038600000000000000080808080000000192422F9
:1038700022223F2008F8008080000000003F112035
:1038800020110E000000008080800000000E11203A
:1038900020201100000000808088F800000E112018
:1038A00020103F200000808080800000001F222226
:1038B00022221300008080F0888888180020203F92
:1038C000202000000000808080808000006B9494A5
:1038D0009493600008F8008080800000203F210061
:1038E00000203F2000809898000000000020203F2A
:1038F00020200000000000809898000000C0808018
:10390000807F000008F8000080808000203F2402B3
:103910002D302000000808F8000000000020203FA3
:10392000202000008080808080808000203F200058
:103930003F20003F8080008080800000203F2100E9
:1039400000203F200000808080800000001F202099
:1039500020201F00808000808000000080FFA120C8
:1039600020110E000000008080808000000E1120D9
:1039700020A0FF80808080008080800020203F2168
:10398000200001000000808080808000003324241B
:1039900024241900008080E0808000000000001FC7
:1039A000202000008080000000808000001F202078
:1039B00020103F20808080000080808000010E3039
:1039C0000806010080800080008080800F300C039A
:1039D0000C300F0000808000808080000020312E9D
:1039E0000E312000808080000080808080818E7079
:1039F0001806010000808080808080000021302C2B
:103A00002221300000000000807C02020000000043
:103A1000003F404000000000FF00000000000000E8
:103A2000FF0000000002027C800000000040403FD8
:103A30000000000000060101020204040000000072
:103A4000000000000000000000000000010203046C
:103A50000607080900000000010203047C3A000880
:103A6000000000201800000048270008943A0008D1
:103A700018000020D80800005827000800000000A7
:103A800000A24A0401000000100000000000000035
:043A90000000000032
:04000005080000ED02
:00000001FF
