:020000040800F2
:10000000D004002019120008791100087B110008A3
:100010007D1100087F110008811100080000000018
:100020000000000000000000000000008311000834
:1000300085110008000000008711000889110008E0
:100040004D120008511200085512000859120008FC
:100050005D120008611200086512000869120008AC
:100060006D120008711200088D1100087512000849
:10007000791200087D12000881120008851200081C
:10008000891200088D1200089112000895120008CC
:10009000991200089D120008A1120008A51200087C
:1000A000A9120008AD120008B1120008B51200082C
:1000B000B9120008BD120008C1120008C5120008DC
:1000C000C9120008CD120008D1120008D51200088C
:1000D000D912000893110008DD120008E11200088F
:1000E000E5120008E9120008ED1200082DE9F843B6
:1000F0000646DFF8A8543078C10748D5686800F094
:100100000C00042807D0686800F00C0008280BD108
:100110006868C10308D52868810338D5706800284D
:1001200040F0BE80012067E17068B0F5803F04D1E7
:10013000286840F48030286014E008B928680AE094
:10014000B0F5A02F286806D140F4802028602968E7
:1001500041F4803105E020F480302860296821F4E2
:1001600080212960706868B100F054FA044628685C
:10017000810300F1958000F04DFA001B6528F6D34D
:10018000032039E100F046FA04462868810340F173
:10019000878000F03FFA001B6528F6D3F0E700F0F7
:1001A00039FA001B022840F2AA80E9E7306970B1F1
:1001B0000121396000F02EFA04462868810700F119
:1001C000DC8000F027FA001B0228F6D9D8E7386057
:1001D00000F020FA04462968880765D500F01AFA6D
:1001E000001B0228F7D9CBE7086000F013FA044699
:1001F000686A810777D500F00DFA001B0228F7D94D
:10020000BEE708B9286A09E00528286A06D140F047
:1002100004002862286A40F0010005E04008400020
:100220002862286A20F00400286241F28938F068C8
:1002300068B100F0EFF98146286A810700F1AA80D1
:1002400000F0E8F9A0EB09004045F5D398E700F08D
:10025000E1F98146286A810740F19C8000F0DAF9D3
:10026000A0EB09004045F5D38AE700F0D3F9001B65
:10027000022840F2A28083E700F0CCF9001B02289C
:1002800040F2B5807CE700F0B9F8044628688101A7
:1002900040F1B18000F0BEF9001B0228F6D96FE7EB
:1002A0003078DFF8047381071BD5686810F00C0FF5
:1002B00009D0686800F00C0008287FF477AF686800
:1002C000C1033FF573AF2868810703D53069012862
:1002D0007FF428AF2968706921F0F80141EAC00174
:1002E0002960317808071DD5B069DFF8C0120028F1
:1002F0003FF47AAF01220A6000F08CF90446686A84
:1003000081077FF54CAFDFF898020268D2084FF4FE
:100310007A71B2FBF1F1009100BF0098411E0028F4
:100320000091F9D13078410739D5E8690024C1003E
:1003300009D4E86940F08050E8610124E86900F0E0
:10034000805000900098DFF86882D8F80000C1055E
:100350001BD4D8F8000040F48070C8F8000000F00A
:1003600059F98146D8F80000C1050ED400F052F9C1
:10037000A0EB09006528F5D302E72868716920F031
:10038000F80040EAC1002860ABE7F06801287FF47C
:1003900038AF3FE71CB1E86920F08050E861F069B0
:1003A00048B3696801F00C0108293FF4BBAE02288C
:1003B0007FF469AF00F022F80446286881013FF518
:1003C00054AF306AB0F5803F05D16968B06821F458
:1003D0000031014369606A68306A716A22F47412FC
:1003E00002430A436A60012000F009F804462868C5
:1003F00081017FF541AF0020BDE8F283002038661F
:1004000000F008B92DE9F8436A4F05463868894677
:1004100000F00700484502D200F086F878D128683D
:100420005E4C810712D5400703D5616841F4E06155
:1004300061602878010703D5606840F4605060600F
:100440006168A86821F0F001014361602978C8075C
:1004500056D56868012802D121688A0303E0022882
:10046000216802D18A0102D452E08A0750D561681E
:10047000890840EA8100606041F2893800F0CAF8DA
:100480000646686801280BD1606800F00C0004285B
:1004900036D000F0BFF8801B4045F5D303202DE097
:1004A000022837D1606800F00C00082828D000F03E
:1004B000B1F8801B4045F5D3F0E72878410705D512
:1004C0006268E86822F4E062024362602978080703
:1004D00006D56168286921F4605141EAC001616074
:1004E00000F02CF8626834492D4BC2F30312895C8A
:1004F000C8401860002000F093F80020BDE8F283A7
:10050000386800F007008145D7D200F00DF8D4D04C
:100510000120F3E7606810F00C0FF1D000F07AF8DA
:10052000801B4045F6D3B9E73968C90849EAC101DB
:100530003960386800F00700484570471F4919487E
:100540000A6802F00C03082B00D0704710B500BFFA
:100550001DA4C2F38343D203E35C08D50968584362
:100560001DA3C1F340415A5CB0FBF2F010BD184628
:100570001349484310BD0A48104A006813681149DE
:10058000C3F3022206E006480C4A006813680D49CE
:10059000C3F3C222895CC8407047000000100240CB
:1005A0000C00002000127A00000042428004424207
:1005B00000700040002002401411000804100240A6
:1005C00000093D004412000802030405060708095B
:1005D0000A0B0C0D0E0F1010010230B4002513E0B1
:1005E00050F8042BD30744BFA9F101039A18091F3F
:1005F000042942F8045BFAD213468C0744BF1580E5
:100600009B1CC90748BF1D7050F8041B0029E7D187
:1006100030BC704701484068704700BF00000020B0
:1006200038B50D4D0D4B2A7804464FF47A71186891
:10063000B1FBF2F2B0FBF2F000F053F850B9102C1D
:1006400008D2002221464FF0FF3000F023F8AC60C2
:10065000002032BD012032BD000000200C0000202F
:100660000901020006D5294A00F00F00104400F8E5
:10067000041C7047264B19547047264B19684FF6D7
:10068000FF020002114000F4E060084322490843E1
:100690001860704738B51F4B1C68C4F30223C3F1C0
:1006A0000704052C28BF04241D1D072D34BF00237B
:1006B000DB1E012505FA04F4641E2140994005FA69
:1006C00003F35B1E1A401143BDE83440C8E7012222
:1006D00000F01F01114BFFE78A40400943F820203A
:1006E000704710B5401EB0F1807F01D3012010BDCE
:1006F0000B4C60600F214FF0FF30FFF7B1FF00217E
:10070000A16007202060002010BD000018ED00E06F
:1007100000E400E00CED00E00000FA0500E100E07C
:1007200010E000E038B5040001D1012032BD00F036
:1007300021F808B900F022F800F012F800F023F8D0
:10074000FFE7416100F001F832BD2068C16841F463
:100750000051C1600020686020216970A970704755
:10076000242068702068C16821F40051C1602046CF
:1007700000F01DB904F13805687870470021297030
:10078000204600F0B5B92068016921F4904101616B
:100790002068416921F02A017047416921F0400138
:1007A0004161606B704738B5044625682968EA687E
:1007B0006B6911F00F0007D188065DD593065BD5F4
:1007C0002046BDE83240A9E0D80702D412F4907F59
:1007D00052D0C80705D5D50503D5E06B40F0010020
:1007E000E063480705D5DD0703D5E06B40F0020064
:1007F000E063880705D5DD0703D5E06B40F0040012
:10080000E063080705D5DB0703D5E06B40F008007F
:10081000E063E06B00286CD0880604D5910644BFE5
:10082000204600F07BF820684069E16B0A0701D49C
:1008300040061BD5204600F05DF8206841694A0655
:100840000FD5FFF7AAFF60B10FF2C5014163606BDE
:1008500000F0E4F900284CD0606B416BBDE83440F7
:1008600008472046BDE8324000F036BA204600F086
:1008700033FA0020E06331BD08062AD5130628D5D7
:1008800094F83900212834D1A068B0F5805F206A3F
:100890000BD10188C1F30801696020690028206A32
:1008A0000CBF811C411C216203E0411C21620078C5
:1008B0006860E08C401EE08480B2D0B92068C168D6
:1008C00021F08001C1602068C16841F04001C16031
:1008D00031BD48060DD551060BD5E86820F0400023
:1008E000E860202184F839102046BDE8324000F04D
:1008F000F4B931BD0168CA6822F49072CA60016817
:100900004A69520852004A61202180F83A10704723
:10091000406A0021C185C18400F0DEB980B590F83D
:100920003A10222941D18168B1F5805F12D1016965
:100930000368826A0029596805D1C1F30801118052
:10094000826A911C04E001F0FF011180826A511C4F
:1009500081620FE001690029816A04D14A1C826228
:1009600003685A6805E04A1C826203685A6802F00C
:100970007F020A70C18D491EC18589B299B901688B
:10098000CA6822F02002CA600168CA6822F4807234
:10099000CA6001684A69520852004A61202180F801
:1009A0003A1000F09BF9002002BD022002BD2DE9A3
:1009B000F0470446642522681169E06821F440513B
:1009C000014311611926D3683249A0680B4021699F
:1009D000034360690B430343D3605169A06921F469
:1009E000407101432C48516182420ED1FFF7CBFD8B
:1009F0000746FFF7C8FD8046FFF7C5FD8146FFF7B4
:100A0000C2FD8246FFF7BFFD0DE0FFF7B4FD0746CC
:100A1000FFF7B1FD8046FFF7AEFD8146FFF7ABFD66
:100A20008246FFF7A8FD616889007743B7FBF1F3C1
:100A30006422B3FBF2F206FB08F3B3FBF1F706FB0B
:100A400009F3B3FBF1FCAE46BCFBFEFE05FB1E77D3
:100A50003F0132376423B7FBF3F303F0F00303EBFA
:100A6000021306FB0AF74643B7FBF1F2B6FBF1F0BF
:100A70006421B0FBF1F105FB11252D013235642015
:100A8000B5FBF0F0216800F00F00C3188B60BDE8E3
:100A9000F0870000F3E9FFFF0038014080B55648B9
:100AA000564900F00BF800B116E001BD80B554487E
:100AB000544900F003F800B10EE001BD01604FF4AD
:100AC000E13200230C2142608360C3600361416115
:100AD0008361C361FFF726BEBDE8014000F038B96D
:100AE00080B549484949FFF7E9FF00B1F4E701BD86
:100AF00030B585B004466846102100F02BF9216816
:100B00003E4A434D434891424FF480641ED10168F0
:100B100041F480410160026802F48042049200F0D6
:100B200057F84FF4007100F059F80021019102913B
:100B300000946946284600F011F90322032125207C
:100B4000FFF7A8FD2520FFF7C2FD3FE02D4A9142A7
:100B500013D1416841F400314160416801F4003132
:100B6000049100F035F8042100F038F80820002145
:100B7000009001910291284625E0244A914225D116
:100B8000416841F480214160416801F48021049171
:100B90000499026842F0080202600222036803F02E
:100BA0000803049304990094032103910192694678
:100BB000194C204600F0D2F84FF40060002100905C
:100BC000019102912046694600F0C8F805B030BD99
:100BD0000499026842F0040202607047006800F065
:100BE00004000490022204980091019203210391D1
:100BF0002846694600F0B2B81000002000380140D5
:100C000050000020004400409000002000480040B8
:100C10000008014018100240000C014038B590F85F
:100C200021200024022A00F1340103D0042048606E
:100C300001243BE00268136823F00E03136002688E
:100C4000DFF8783015686D086D00156002689A420B
:100C500008BF012222D0DFF868309A4208BF102274
:100C60001CD0DFF860309A4208BF4FF4807215D074
:100C7000DFF854309A4208BF4FF480520ED0DFF8AC
:100C80004C309A4208BF4FF4803207D0DFF8403032
:100C90009A420CBF4FF480124FF08072DFF834306C
:100CA0001A6000F005F8096801B18847204632BD96
:100CB000012280F8212080F820407047080002407F
:100CC0001C00024030000240440002405800024034
:100CD0006C0002400400024070477047704780B5C6
:100CE00000F028F900F009F800F036F9FFF7D6FE19
:100CF000FFF7DCFEFFF7F4FEFEE700B58FB005A8B6
:100D0000282100F027F86846142100F023F84FF45A
:100D100080310022069107920D91012005900990E3
:100D200002224FF4E0110C920E9105A8FFF7DEF9B4
:100D3000022101910F204FF4806100900022039165
:100D40000292049202216846FFF75CFB0FB000BDDF
:100D500070470000002200F079B900002DE9F84347
:100D6000024600200025644BDFF8909101270E68B1
:100D7000AF403E40BE4240F0AC804C686CB3012CAA
:100D800020D0022C23D0032C32D0112C1CD0122CBA
:100D900020D0DFF86CE174451CBFDFF868E17445D2
:100DA0001BD0DFF864E174451CBFDFF860E17445D7
:100DB00013D0DFF85CE174451CBFDFF858E17445DF
:100DC0000BD016E0C86814E0C868001D11E0C868C0
:100DD00008300EE0C8680C300BE0886808B90420C1
:100DE00007E0012819BF082057610820176100E0BB
:100DF0000020B6F5807F03D294464FEA850E05E0C9
:100E0000A5F1080402F1040C4FEA840E0F27DCF868
:100E1000008007FA0EF428EA040400FA0EFE4EEAF7
:100E20000404CCF800404C68E40052D5D9F80040E6
:100E3000DFF8E4E044F00104C9F800404FEA950C03
:100E4000D9F8004004F0010400944FEA8508009CA2
:100E50005EF82C4008F00C0807FA08F724EA0707A8
:100E60002E4CA24208BF00240ED02D4CA24208BF37
:100E7000012409D02B4CA24208BF022404D02A4CE2
:100E8000A2420CBF0324042404FA08F427434EF8BA
:100E90002C70F7434C68E4031C684CBF34433C405F
:100EA0001C604C68A4035C684CBF34433C405C60ED
:100EB0004C68E4029C684CBF34433C409C604C68E6
:100EC000A40203D5DF683E43DE6002E0DE683740FF
:100ED000DF606D1C0F2D7FF649AFBDE8F18302B9CD
:100EE000090401617047114A136803421CBF106076
:100EF00000F01EB8704700000004014018100240C6
:100F0000000011100000121000002110000022103B
:100F100000003110000032100800014000080140BC
:100F2000000C014000100140001401401404014075
:100F30007047000080B50748016841F0100101606A
:100F40000320FFF79AFB0020FFF76AFB00F098F8F8
:100F5000002002BD0020024030B585B06846102157
:100F6000FFF7F8FE2F48304D046844F01004046089
:100F700001682E4C01F0100104910499026842F0BE
:100F800020020260036803F02003049304990268BE
:100F900042F004020260036803F00403049304991E
:100FA000026842F0080202600022006800F00800B7
:100FB0000490E02104982046FFF791FF00224FF4AF
:100FC00070712846FFF78BFF0320002100900191EC
:100FD000022200F035F810201549009001910022FE
:100FE00000F02EF8202100F025F800F02AF8C021AA
:100FF00000910122022102910391019200F021F857
:101000004FF4707100F016F869462846FFF7A6FE07
:10101000012202210A20FFF73DFB0A20FFF757FBC0
:1010200005B030BD18100240000C0140000801401E
:101030000000111000910122019202920392704768
:10104000029269462046FFF789BE000000B500BF46
:10105000130096469446103928BFA0E80C50FAD8E1
:101060005FEA417C28BF0CC048BF40F8042BC90789
:1010700028BF20F8022B48BF00F8012B00BD00005C
:1010800080B50F48016841F001010160026802F07B
:10109000010200920099426842F08052426040682A
:1010A00000F08050009000980520FFF7E6FA054810
:1010B000016821F0E06141F00071016001BD00BFF5
:1010C000181002400400014010B50E4A0E49106885
:1010D00040F00100106053680C480B4053601468E6
:1010E00004401460116821F4802111604FF41F0145
:1010F000506820F4FE00506091604FF00060044A98
:10110000106010BD001002400000FFF8FFFFF6FE67
:1011100008ED00E0000000000000000001020304F0
:101120000607080930B450F8041B79B10268436817
:1011300002440830DC0744BFA9F10104E31852F867
:10114000045B43F8045B091FF9D1ECE730BC70473E
:1011500010B5074979441831064C7C44163404E034
:101160000A68081D114488470146A142F8D110BD04
:101170003C0000005C0000007047FEE7FEE7FEE771
:10118000FEE770477047704700F008B81020FFF77F
:10119000AABE0148FFF707BB1000002002494A68B9
:1011A000087882184A607047000000202FF4FFFF83
:1011B000C0000000100000200000000069FFFFFFD9
:1011C000100000006400000000000020000000008B
:1011D00000F00DF8002801D0FFF7BAFFAFF3008050
:1011E0000020AFF30080FFF77AFD00F002F8012045
:1011F000704700F001B800000746384600F002F8DA
:10120000FBE7000080B5AFF30080024A1100182010
:10121000ABBEFBE7260002000148804701480047BB
:10122000C910000839120008010000000000000089
:101230001000000000A24A04AFF30080AFF300806A
:10124000FFF7C6FF0000000001020304FFF7FEBF26
:10125000FFF7FEBFFFF7FEBFFFF7FEBFFFF7FEBFC2
:10126000FFF7FEBFFFF7FEBFFFF7FEBFFFF7FEBFB2
:10127000FFF7FEBFFFF7FEBFFFF7FEBFFFF7FEBFA2
:10128000FFF7FEBFFFF7FEBFFFF7FEBFFFF7FEBF92
:10129000FFF7FEBFFFF7FEBFFFF7FEBFFFF7FEBF82
:1012A000FFF7FEBFFFF7FEBFFFF7FEBFFFF7FEBF72
:1012B000FFF7FEBFFFF7FEBFFFF7FEBFFFF7FEBF62
:1012C000FFF7FEBFFFF7FEBFFFF7FEBFFFF7FEBF52
:1012D000FFF7FEBFFFF7FEBFFFF7FEBFFFF7FEBF42
:1012E000FFF7FEBFFFF7FEBFFFF7FEBFFFF7FEBF32
:0400000508001239A4
:00000001FF
